:020000040800F2
:1000000008130020D5000008B50E0008F70400080A
:1000100000000000000000000000000000000000E0
:100020000000000000000000000000003114000883
:100030000000000000000000090F0008C9140008BB
:10004000E7000008E7000008E7000008E7000008F4
:10005000E7000008E7000008E70000089D0100082D
:10006000E7000008E7000008E7000008E7000008D4
:10007000E7000008E7000008E7000008E7000008C4
:10008000E7000008E700000800000000E7000008A3
:10009000E7000008E7000008E7000008E7000008A4
:1000A000E7000008E7000008E7000008E51900087D
:1000B0008D1A000800000000E700000800000000A2
:1000C0000348854600F046F8004800478D1D0008AB
:1000D000081300200448804704480047FEE7FEE775
:1000E000FEE7FEE7FEE7FEE771180008C100000822
:1000F00030B50B46014600202022012409E00D46C0
:10010000D5409D4205D31D469540491B2546954047
:1001100040191546521E002DF1DC30BD03460B433D
:100120009B0703D009E008C9121F08C0042AFAD2AD
:1001300003E00B780370401C491C521EF9D2704733
:100140000321001D401E037812021A43491EF9D5EF
:1001500010467047064C0125064E05E0E36807CCC3
:100160002B430C3C98471034B442F7D3FFF7ACFF55
:10017000741E0008941E000810B507E003780C7880
:10018000A34201D0002010BD401C491C1346521E42
:10019000D2B2002BF2D1012010BD0000F8B54020F2
:1001A00000F066F82D4D2C4F2E4601246036803528
:1001B00000280ED04021384600F092F9002805D0E2
:1001C0003472EC752021264800F093F9402000F0AD
:1001D00049F8802000F04CF800280ED080213846E5
:1001E00000F07EF9002805D034732C7610211C48CD
:1001F00000F07FF9802000F035F8FF2701373846FE
:1002000000F036F8002810D009203946C00600F06A
:1002100067F9002806D034710920AC75F901C006D1
:1002200000F067F9384600F01DF80127FF03384653
:1002300000F01EF800280ED03946094800F050F9A9
:10024000002805D074706C750821054800F051F93C
:10025000384600F007F8F8BD001400489000002070
:100260000004004801494861704700000004014053
:10027000034A0146526900200A4200D0012070471B
:10028000000401400149C86070470000002002409E
:10029000F0B50B2706463F04384600F0AFF80428B7
:1002A0000FD1084C2069022528432061666120692E
:1002B000402108432061384600F0A0F82169A94395
:1002C0002161F0BD0020024008490420CA68D2071D
:1002D00001D001207047CA68D20601D502207047BC
:1002E000C9684907FBD50320704700000020024081
:1002F000F7B582B016460446002500F06FF8124F9D
:1003000018E0A800039900900958206800F040F810
:10031000042802D0012005B0F0BD206803990268CE
:1003200000980858824201D00220F4E72068001D9E
:1003300020606D1CB54202D22068B842E1D900F0BD
:1003400005F80020E7E70000FCF700080248016913
:10035000802211430161704700200240F0B50B2755
:1003600006463F040D46384600F048F804280CD1F4
:10037000064C20690121084320613580384600F091
:100380003DF82169490849002161F0BD0020024083
:10039000F8B5064600200B273F0400900D4638466E
:1003A00000F02CF8042815D10B4C206901210843DA
:1003B00020613580384600F021F8042806D1B61CAB
:1003C000280C00963080384600F018F8216949085A
:1003D00049002161F8BD0000002002400448016985
:1003E000090603D503494160034941607047000095
:1003F0000020024023016745AB89EFCD00B50346DD
:10040000FFF762FF02E0FFF75FFF5B1E012803D0EA
:10041000002B00D1052000BD002BF4D1FAE700002D
:1004200038B50023094C04E00D78E5545B1C9BB201
:10043000491C9342F8D30090920804496846FFF79C
:1004400057FF002800D0012038BD00009C09002083
:10045000F0B50022012423460D6893401D409D42C3
:100460002AD10D79012D01D0022D12D187685500B6
:100470000326AE40B74387604E79AE4085682E4371
:10048000866085889D43858085888B7993401D4350
:100490008580066855000323AB409E4306600E79B5
:1004A0000768AE403E430660C6689E43C660CB798F
:1004B000AB40C5682B43C360521C102ACBD3F0BDA0
:1004C0004B07DB0E9A40C90810B589000818016A6D
:1004D0000F249C40A1430162016A1143016210BDD7
:1004E0000246128A00200A4200D00120704701858E
:1004F000704781617047FEE7034800218160C16059
:10050000016041607047000038010020F7B5002508
:1005100017462C460EE0019806193046FFF710FEEC
:10052000F1780002000A09060843AA000099241D78
:1005300088506D1CBC42EED3FEBDF0B500252B46A5
:100540000EE0AC000E5DC6540E5B370AC61877701D
:100550000F591B1D3F0CB7700C59240EF4706D1C05
:100560009342EED3F0BD000070B5044600880E46FD
:10057000C005800E382801D2382100E078210D1AFC
:10058000082221460A48FFF7D8FF09492A460831C0
:10059000204600F0D3FB08220549204600F0CEFBA0
:1005A0002146102208313046FFF7C7FF70BD00001A
:1005B0004800002000210160416005498160054933
:1005C000C1600349C94301610249C94341617047A0
:1005D0000123456789ABCDEFF0B502689BB00446B7
:1005E0000392251DE0CD4022FD48FFF78FFF2846EE
:1005F00039463040A9430843FA494318F849086886
:100600001790039A0B90801818181922D04143199B
:100610001846324628409A431043F34A82184868E5
:1006200009901A90C01910181422D041C01802461F
:100630002F461A4087433A43EC4FD7198A680692EF
:100640009219BA180F26F241121816461F46064094
:1006500097433E43E64FF719CE68129675197D19F8
:100660000A26F541AD182E4607461640AF433E43D5
:10067000E04FF7190E690C96F318FB181926F34191
:100680005B191E4617462E409F433E43DA4FF6192C
:100690004F690897381830181426F041C01816977B
:1006A00006462F461E4087433E43D44FF7198E69B6
:1006B0001196B218BA1819960F26F241121816465A
:1006C0001F46064097433E43CD4FF719CE690F961C
:1006D00075197D190A26F541AD182E4607461640B4
:1006E000AF433E43C74FF7190E6A0E96F318FB1837
:1006F0001926F3415B191E4617462E409F433E4381
:10070000C14FF7194E6A1396301838181426F04165
:10071000C01806461E402F4687433E43BB4FF6197E
:100720008F6A0A97BA18B2180F26F2411218159755
:1007300016461F46064097433E43B54FF619CF6A0B
:100740000D977D1975190A26F5411897AF183D4682
:1007500006461540BE433543AE4EAE190D6B0495AB
:10076000EB18F3181925EB41DE19334615463B40CB
:10077000B5432B43A84D5D194B6B109318182818DF
:100780001423D841851928463B463040AB431843D3
:10079000A24BC318886B8446801818180F22D041CA
:1007A0004219104633462840934303439C48181887
:1007B000C96B07918E46C91940180A21C84187188C
:1007C000394610462F40A843074396481B233F183D
:1007D0001A9880193818D84143181E460F461640FB
:1007E000974391483E433018199E189F7519401938
:1007F0001725E841C618354618460D40884305437D
:100800008A482D18B81828181222D0418519284670
:10081000324618409A431043854A82181798401868
:1008200010180C21C8414219174628463740B043DA
:10083000074380483818169FF91840181B21C841F3
:100840008318184628401746AF4338437A4FC019DB
:10085000159FB91940181721C841C61831461846C6
:100860001140904308437146744F4919C01940180C
:100870001221C84180190146354619409D4329433C
:100880006F4D4D190C99891869180C22D14109181E
:100890000A4605463240B5432A436A4D5519139A14
:1008A000D218AA181B23DA41521813460D460340EA
:1008B00085432B43644D5D1963469B19EB1817253F
:1008C000EB419B181D4616460D408E4335435F4E47
:1008D000AE19129D281830181225E841C018054697
:1008E0001E46154096433543594EAE190E9D691864
:1008F00071180C25E94109180D4606461D409E4316
:100900003543544EAE19109DAA18B2181B25EA4162
:10091000521815460E460540864335434E4EAE19D5
:10092000069DEB18F3181725EB419B181D4616463C
:100930000D408E433543494EAE190F9D281830188F
:100940001225E841C51828461E46104096433043FC
:10095000434E86190498401830180C21C84141199B
:100960000898404E80180A466A405A4092198018EA
:100970001C22D0410E9A4018D21803464B403A4EE2
:100980006B409B19D2181523DA410D9B12185B1985
:10099000154645404D40354E6144AD195B19102553
:1009A000EB419B181D465540314E4540AD19491944
:1009B0000925E941099DC91828180D465D402D4EAD
:1009C0005540AD1940191C25E8410C9D4018AA1846
:1009D00005464D40284E5D40AD19521915254DE094
:1009E000040E002078A46AD756B7C7E8DB7020242D
:1009F000EECEBDC1AF0F7CF52AC68747134630A89F
:100A0000019546FDD8988069AFF7448BB15BFFFF35
:100A1000BED75C892211906B937198FD8E4379A6A5
:100A20002108B44962251EF640B340C0515A5E26E3
:100A3000AAC7B6E95D102FD65314440281E6A1D8A7
:100A4000C8FBD3E7E6CDE121D60737C3870DD5F440
:100A5000ED145A4505E9E3A9F8A3EFFCD9026F6745
:100A60008A4C2A8D4239FAFF81F6718722619D6D89
:100A70000C38E5FD44EABEA4A9CFDE4BEA410F9D48
:100A80001218EB1815464540924E4D40AD195B19B2
:100A90001025EB410A9D9B1869181D4655408E4E46
:100AA0004540AD1949190925E941109DC918281873
:100AB0000D465D40894E5540AD1940191C25E84151
:100AC0000B9D4018AA1805464D40854E5D40AD1956
:100AD00052191525EA41129D1218EB18154645408A
:100AE000804E4D40AD195B191025EB41119D9B18AF
:100AF00069181D4655407C4E4540AD1949190925D8
:100B0000E941139DC91828180D465D40774E5540A0
:100B1000AD1940191C25E841049D4018AA18054646
:100B20004D405D40724E7344AD1952191525EA418E
:100B30001218154645406F4E4D40AD195B191025F2
:100B4000EB41069D9B1869181D4655406A4E45406D
:100B5000AD1949190925E9410B9DC9182818D54334
:100B60000D43664E5D40AD1940191A25E8410F9DB1
:100B70004018AA18DD430543614E4D40AD19521986
:100B80001625EA411218CD4315435E4E4540AD1976
:100B900063445B191125EB41089D9B186918C543F7
:100BA0001D43594E5540AD1949190B25E941049D86
:100BB000C9182818D5430D43544E5D40AD1940194E
:100BC0001A25E841129D4018AA18DD430543504EEE
:100BD0004D40AD1952191625EA410A9D1218EB181D
:100BE000CD4315434B4E4540AD195B191125EB41E3
:100BF000099D9B186918C5431D43474E5540AD19C3
:100C000049190B25E9410E9DC9182818D5430D43F4
:100C1000424E5D40AD1940191A25E8414018DD43A8
:100C200005433F4E4D40AD19724452191625EA4115
:100C3000119D1218EB18CD4315433A4E4540AD199E
:100C40005B191125EB41109D9B186918C5431D4385
:100C5000354E5540AD1949190B25E9410C9DC91870
:100C60002818D5430D43314E5D40AD1940191A2562
:100C7000E8410D9D4018AA18DD4305432C4E4D4018
:100C8000AD1952191625EA41069D1218EB18CD43ED
:100C90001543284E4540AD195B191125EB41139DB5
:100CA0009B186918C5431D43234E5540AD1949197A
:100CB0000B25E9412568C91828182060606840188C
:100CC0006060A068C018A060E0688018E0601BB099
:100CD000F0BD0000604BBBF670BCBFBEC67E9B285B
:100CE000FA27A1EA8530EFD4051D880439D0D4D97C
:100CF000E599DBE6F87CA21F6556ACC4442229F4D2
:100D000097FF2A43A72394AB39A093FCC3595B6593
:100D100092CC0C8F7DF4EFFFD15D84854F7EA86F60
:100D2000E0E62CFE144301A3A111084E827E53F786
:100D300035F23ABDBBD2D72A91D386EBF8B505463A
:100D40002B680F461646D905890E4022541AF20028
:100D50009B1800202B6093426A6801D2521C6A6083
:100D6000730FD2186A60A64214D368182246394617
:100D70001830FFF7D3F9294618312846083000907B
:100D800001E039180098FFF727FC20464034B442B0
:100D9000F7D90021321A3B18681819461830FFF7A6
:100DA000BDF9F8BD30B589B00024384907940A6808
:100DB00001231A430A604A68354B1A404A600A68A0
:100DC000344B1A400A600A6801239B049A430A6064
:100DD0004B683F22120493434B60CB6A1B091B01F3
:100DE000CB620B6BFF255435AB430B634B6B5B083E
:100DF0005B004B638C60284D11232B604B684B606C
:100E00004B684B604B6893434B60244A082802D0E0
:100E1000302804D00AE022481060486805E02148E4
:100E2000106048680522D204104348600868012217
:100E300012061043086008688001FCD548688008E5
:100E400080004860486802221043486048680007F4
:100E5000800F0228FAD1684600F094F87D21C9007D
:100E60000198FFF745F91049401E88420BD80F49F9
:100E700048610F480722C3691B021B0A4D042B431C
:100E8000C3618C610A6109B030BD000000100240EE
:100E90000CB8FFF8FFFFF6FE002002400000002023
:100EA00000127A00006CDC02FFFFFF0000E000E0AF
:100EB00004ED00E07047000030B58378012102782E
:100EC000002B15D094080E4BA400E4182368920759
:100ED000D50EFF22AA40934342789207120EAA40F1
:100EE0001A4322600078C006C00E8140054804E025
:100EF000D006C00E814003488030016030BD000044
:100F000000E400E000E100E070470000044A00292E
:100F1000516901D0014300E08143516170470000F5
:100F200000100240044A0029D16901D0014300E0C9
:100F30008143D1617047000000100240044A00293B
:100F4000116901D0014300E0814311617047000045
:100F500000100240044A0029916901D0014300E0D9
:100F6000814391617047000000100240044A00294B
:100F7000D16801D0014300E08143D1607047000097
:100F800000100240F8B5334D044668680C21324E1B
:100F9000084003D0042801D0082801D0266012E0C0
:100FA000696868680122890212040F0F1040BF1C93
:100FB00000281CD0E86A0107090F3046491CFFF7DA
:100FC00097F8784320606868244B0006000F1A5C8D
:100FD00020680146D14061606A685205520F9A5CF0
:100FE000D140A1602A6BD20505D41D4A09E01D48F5
:100FF00047432760E7E76A68520401D44A0800E0E3
:101000008A08E2602A6B5306174A03D4164B123340
:10101000236100E022612B6BDB0601D4666100E0F6
:1010200060612B6B9B070FD0296B8907890F012902
:101030000CD0286B8007800F022809D0286BC04392
:10104000800700D1A661F8BDA161F8BDA061F8BD1F
:10105000A261F8BD0010024000127A0014000020C6
:10106000809FD50000093D0000800000F0B50121FF
:1010700089B04804FFF74AFF01214804FFF752FFF7
:10108000092001220221C006FFF71AFA09200122D5
:101090000321C006FFF714FA0C27022568460097C3
:1010A000057103214171002484710126C671092054
:1010B0006946C006FFF7CCF9684600950671847151
:1010C000C4710321417109206946C006FFF7C0F9C8
:1010D00001214804FFF732FF00212804FFF72EFF0B
:1010E000E120079740020894114F0390049405945F
:1010F000069403A9384600F077FD1C21684601726A
:101100004572867202A8FFF7D7FE012209493846C8
:1011100000F055FD0121384600F004FD064804802A
:10112000448009200221C006FFF7E1F909B0F0BDB3
:1011300000440040050105008801002010B500F0C2
:1011400099FDC1B209484288930502889B0D521C43
:101150009205920D934207D00388021D995401888D
:10116000491C8905890D018010BD000088010020FF
:10117000F8B507460E4609200221C006FFF7B9F967
:101180000024104D0BE04021284600F0F5FC00281B
:10119000F9D0395D284600F071FD641CE4B2B44218
:1011A000F1D34021284600F0E7FC0028F9D0064999
:1011B00000200880488009200221C006FFF797F927
:1011C000F8BD0000004400408801002010B5002355
:1011D0001A4602E0845CE318521C8A42FAD3D8B261
:1011E00010BD0000FEB5012269466B4800F07AFB95
:1011F00000281BD068466A4D0178684C6868002753
:101200002154401C68602178AA290ED12978002930
:1012100004D1012129707D210901A960012805D986
:101220006178AA2903D0BB2904D06F60FEBD401E9F
:101230006860FEBD0628FCD92179667909020E4353
:10124000F11D8842F5D12F70B61D314653486F60AD
:10125000FFF7BCFF0190A1190122524800F0FCFDEC
:101260005048801F817901988142E2D14E4AA1788D
:10127000127820469142DCD1C17801292DD0052970
:10128000D7D04A4E4A4B06292BD00729D1D1314617
:10129000803182790C460A82098A09022182218AD8
:1012A000C27911432182007AA074A27C208A3B4932
:1012B000C01809310191FFF7B3F8A27C3D480199AC
:1012C000FFF73CFDA07CE9684018E860B16F8142FF
:1012D00046D9002000F0ADF8FEBD012000F0B2F8C4
:1012E000FEBD8179B167B16F0902B167B16FC27993
:1012F0001143B167B16F0902B167B16F027A11434F
:10130000B167B16F0902B167B16F427A1143B1673A
:101310002649827A40318A878A8F12028A878A8F89
:10132000C47A22438A870021421874186034491C09
:10133000127BC9B2A2771029F6D300241E46FFF70C
:101340004DF8A0028019FEF7A3FFFEF7FFFF641C13
:10135000E4B2282CF3D30120EF6000F07CF8FEBD4E
:10136000144914485831EF60FFF7FEF811490F484F
:10137000102258317E30FEF7FFFE0128EFD100F039
:1013800058F8AA200949A0730B4B01228E31002086
:1013900000F0D0FCFEBD0000004400408C050020A1
:1013A0003800002092070020240000209000002038
:1013B000003000089C0D002000E8000870B50D46C4
:1013C000134CAA212170BB21617012490978A170C8
:1013D000E070280A20716571002003E0115C231879
:1013E0009971401CA842F9D3A91D0948FFF7EEFEE8
:1013F0000949012288716019891D801D00F02CFDAA
:10140000ED1DE9B20248FFF7B3FE002070BD0000F9
:1014100093070020240000209309002010B5002429
:10142000181802E008C80B55641C9442FADB10BD82
:10143000704708B56946087001216A460720FFF722
:10144000BDFF08BD08B56946087001216A4608203D
:10145000FFF7B4FF08BD08B56946087001216A4668
:101460000620FFF7ABFF08BD08B500200090144927
:10147000112008601348416841604168416041683B
:101480003F2212049143416041680522D204114376
:10149000416001680122120611430160016889015F
:1014A000FCD54168890889004160416802221143E6
:1014B000416041680907890F0229FAD108BD00007F
:1014C0000020024000100240F8B5E44D6888401C3E
:1014D00068802C464034607C27462037002601284F
:1014E0000DD1608A401C6082618ADD48814206D944
:1014F0003E70668266740821DA48FEF7F8FF207DA8
:1015000001280FD1E08A401CE082E18AD448814260
:1015100008D93E70E682012109202675C903C0065C
:10152000FEF7E5FF207E01280DD1608B401C608313
:10153000618BCB48814206D93E7066832676202196
:10154000C848FEF7D4FF207F01280DD1E08B401C56
:10155000E083E18BC248814206D93E70E68326775C
:101560001021C048FEF7C3FFBC4C01202034A17DF0
:10157000012909D1E98D002906D0E98D491EE985A7
:10158000E98D022900D2A072E17D012909D1298EBD
:10159000002906D0298E491E2986298E022900D2CB
:1015A000E072217E012909D1698E002906D0698E59
:1015B000491E6986698E022900D22073617E012945
:1015C00009D1A98E002906D0A98E491EA986A98E07
:1015D000022900D26073287CFF27F537012838D113
:1015E000A888401CA8800420285EB84231DDAE8067
:1015F000287B002808D000202873287F002828D0C6
:101600002078012802D016E00120F5E701218903A6
:101610009448FEF76CFF012149039248FEF767FFEB
:10162000012109038F48FEF762FF0121C9028D489D
:10163000FEF75DFF2670287B002805D00920802159
:10164000C006FEF756FF04E009208021C006FEF721
:101650004EFF687C012838D1E888401CE8800620CD
:10166000285EB84231DDEE80687B002808D000207B
:101670006873687F002828D06078012802D016E0BF
:101680000120F5E7012189037648FEF732FF0121A9
:1016900049037448FEF72BFF012109037148FEF747
:1016A00026FF0121C9026F48FEF721FF6670687BA3
:1016B000002805D009204021C006FEF71AFF04E0EB
:1016C00009204021C006FEF712FFA87C012838D16E
:1016D0002889401C28810820285EB84231DD2E81EF
:1016E000A87B002808D00020A873A87F002828D055
:1016F000A078012802D016E00120F5E70121890336
:101700005848FEF7F4FE012149035648FEF7F1FE62
:10171000012109035348FEF7EAFE0121C90251489D
:10172000FEF7E5FEA670A87B002805D00920202141
:10173000C006FEF7DEFE04E009202021C006FEF709
:10174000D6FEE87C012839D16889401C68810A20CE
:10175000285EB84232DD6E81E87B002808D0002088
:10176000E873E87F002829D0E078012802D017E04C
:101770000120F5E73B4F012189033846FEF7B9FE0A
:10178000012149033846FEF7B4FE0121090338461A
:10179000FEF7ADFE0121C9023846FEF7A8FEE6704D
:1017A000E87B002805D009201021C006FEF7A1FE25
:1017B00004E009201021C006FEF799FEA88A00283F
:1017C0000DD0A88A401EA882A88A002807D12E74AE
:1017D00009202E778021C006FEF789FE2E70E88A48
:1017E00000280DD0E88A401EE882E88A002807D148
:1017F0006E7409206E774021C006FEF778FE2E70C9
:10180000288B00280DD0288B401E2883288B002889
:1018100007D1AE740920AE772021C006FEF767FE1F
:101820002E70688B00280DD0688B401E6883688BF3
:10183000002807D1EE740920EE771021C006FEF7CC
:1018400056FE2E7000F044F807490868002804D0BE
:10185000401E086001D105480660F8BD90000020D8
:1018600060EA000000040048400000203C00002026
:1018700010B5144801680122114301604168124A01
:10188000114041600168114A114001600168012264
:1018900092049143016041683F22120491434160E8
:1018A000C16A09090901C162016BFF2254329143E7
:1018B0000163416B49084900416300218160FFF7E2
:1018C000D3FD10BD001002400CB8FFF8FFFFF6FE7C
:1018D0000348C168002902D0C168491EC160704731
:1018E00024000020F7B5154F15460C460026324659
:1018F0003946009800F063F9114B181D0CE0598827
:10190000095C21705988491C8905890D5980761C0C
:101910006D1EF6B2EDB2641C002D07D019885A88EE
:101920008905890D9205920D9142E8D1012239462F
:10193000009800F044F93046FEBD000005010500A6
:101940008801002010B500F095F9C1B20948C268BD
:10195000D3068268DB0E521CD206D20E934208D008
:1019600083680246303299548168491CC906C90E01
:10197000816010BD3801002070B5174C0546206805
:101980006168C006C00EC906C90E88420BD06168E6
:1019900020461030095C284600F070F96068401C51
:1019A000C006C00E606020686168C006C00ECA062E
:1019B000D20E0A490A4C904206D10022284600F075
:1019C000FEF80020207070BD0120207002462846DD
:1019D00000F0F5F870BD0000380100200701070095
:1019E0003400002070B5264D264C2946204600F0D4
:1019F000CAF8002806D02946204600F091F8204673
:101A0000FFF7A0FF2049204600F0BDF8012802D1D1
:101A10002046FFF7B1FF0821204600F0ADF801286D
:101A200006D10821204600F07BF8204600F022F97C
:101A30000421204600F0A0F8012806D10421204608
:101A400000F06EF8204600F015F90221204600F063
:101A500093F8012806D10221204600F061F82046C3
:101A600000F008F90121204600F086F8012806D18F
:101A70000121204600F054F8204600F0FBF870BD2C
:101A800005010500003801400701070070B5224D2F
:101A9000224C2946204600F076F8002806D0294638
:101AA000204600F03DF82046FFF748FB082120467D
:101AB00000F062F8012806D10821204600F030F835
:101AC000204600F0D7F80421204600F055F8012800
:101AD00006D10421204600F023F8204600F0CAF881
:101AE0000221204600F048F8012806D102212046B4
:101AF00000F016F8204600F0BDF80121204600F065
:101B00003BF8012806D10121204600F009F82046C3
:101B100000F0B0F870BD0000050105000044004071
:101B2000016270470029016802D00122114301E0DF
:101B300049084900016070470D4910B5884209D134
:101B400001218C032046FFF711FA00212046FFF700
:101B50000DFA10BD07498842FBD101214C042046F3
:101B6000FFF7ECF900212046FFF7E8F910BD00006F
:101B700000380140004400400246D26900200A4279
:101B800000D00120704730B50A04130E012214461C
:101B900000258C40012B0ED0022B0ED08368090C3F
:101BA0002340C0698A401040002B02D0002800D09A
:101BB0000125284630BD0368F1E74368EFE710B51B
:101BC0000B041C0E01238B40022C02D0032C02D0EC
:101BD00002E0001D00E008300168002A01D019432E
:101BE00000E09943016010BD30B50446006887B03D
:101BF0000D464008400020606068032109038843C7
:101C0000A9680143616020681749EA68084069686B
:101C100011432A69024311432160A068032109028C
:101C2000884369690143A1606846FFF7ABF90F4833
:101C3000844201D1069800E00298216809042968CD
:101C400000D54000FEF754FA2A6852088A4200D8AC
:101C5000401C2168090404D50107054A490F1040BA
:101C60000843A08107B030BDF3E9FFFF0038014011
:101C7000F0FF0000808CC005C00D7047C905C90D7C
:101C80000185704770B501218AB04804FFF73EF91D
:101C900001218803FFF75EF90921CE0601223046B3
:101CA000FEF70EFC01220A213046FEF709FC022055
:101CB0006946087103204871002401258C71CD719B
:101CC000680200903046FEF7C3FBA8020090694608
:101CD0003046FEF7BDFB144E3046FFF72DFFE120E6
:101CE0004002089403900C200790049405940694F5
:101CF00003A93046FFF778FF1B20694608724D7232
:101D00008D7202A8FFF7D8F8012208493046FFF784
:101D100056FF01213046FFF705FF05480470FEF726
:101D2000EBFB0AB070BD0000003801400501050062
:101D300034000020FFB581B01E46174600241D1850
:101D4000FEF74CFB3420FEF79DFA3046FEF7A0FA72
:101D500006E00298015D2846FEF700FB641C2D1D7D
:101D6000BC42F6DBFEF7F2FA05B0F0BD02E008C8AF
:101D7000121F08C1002AFAD170477047002001E005
:101D800001C1121F002AFBD17047000088B0002655
:101D90006846FFF7F7F87D21C9000198FEF7A8F91A
:101DA0002349401E88420CD8224948612248072214
:101DB000C3691B021B0A4C042343C36100208861D2
:101DC0000A610820FEF7EEFFFFF75CFFFFF74EF910
:101DD0001A48FEF7EFFB1A4B05221A490020FFF7BD
:101DE0001DFB1848184C0B38C07A16492070174B49
:101DF000012243310020FFF711FB124F144D3537FC
:101E0000B87B88280ED0286812490840012149076C
:101E10008842F5D16868A0606060296881F308880D
:101E20008047EDE7002E00D10126FFF7DBF9E7E759
:101E3000FFFFFF0000E000E004ED00E09C0D00204B
:101E400000F80008DB0000202400002000E8000863
:101E5000003000080000FE2F002A09D00B78037024
:101E6000401C491C521E1206120EF7D10120704769
:101E700000207047941E0008000000209000000021
:101E80006C1D0008241F000890000020781200003C
:101E90007C1D0008006CDC02000000000000000057
:101EA0000102030406070809000000000102030400
:101EB00001020304060708090000000000000000FA
:101EC0000000000000000000000000000000000012
:101ED0000000000000000000000000000000000002
:101EE0000000000080000000000000000000000072
:101EF00000000000000000000000000000000000E2
:101F000000000000000000000000000000000000D1
:101F100000000000000000000000000000000000C1
:041F200000000000BD
:04000005080000C12E
:00000001FF
